:020000040040BA
:10000000500A4020C5014000C1014000C10140002C
:10001000C1014000C1014000C101400000000000DA
:10002000000000000000000000000000C1014000CE
:10003000C101400000000000C1014000C1014000BA
:10004000C1014000C1014000C1014000C1014000A8
:10005000C1014000C1014000C1014000C101400098
:10006000C101400000000000C1014000C10140008A
:10007000C1014000C1014000C1014000C101400078
:10008000C1014000C1014000C1014000C101400068
:10009000C1014000C1014000C1014000C101400058
:1000A000C1014000C1014000C1014000C101400048
:1000B000C1014000C1014000C1014000C101400038
:1000C000C1014000C1014000C1014000C101400028
:1000D000C1014000C1014000C1014000C101400018
:1000E000C1014000C1014000C1014000C101400008
:1000F000C1014000C1014000C1014000C1014000F8
:10010000C1014000C1014000C1014000C1014000E7
:10011000C1014000000000000000000000000000DD
:10012000C1014000C1014000C1014000C1014000C7
:10013000C1014000C1014000C1014000C1014000B7
:10014000C1014000C1014000C1014000C1014000A7
:10015000C101400010B5054C237833B9044B13B1ED
:100160000448AFF300800123237010BD3004402009
:1001700000000000300440000C4B43B10C480D4916
:1001800010B5AFF300800C48036823B910BD0A48CE
:10019000036833B97047094B002BF7D0BDE8104016
:1001A0001847064B002BF5D0184700BF0000000091
:1001B00030044000340440203004400000000000BF
:1001C000FEE7000008B5174B174A9A4210D0174BAC
:1001D000144A9A420CD2013B9B1A23F003030433C6
:1001E0001344114951F8040B42F8040B9A42F9D117
:1001F0000F4B104A9A420AD2013B9B1A23F0030389
:1002000004331344002142F8041B9342FBD10A4AF1
:100210000A4B23F07F039360094B9847094B98479B
:10022000FEE700BF000040203004400030044020C2
:100230004C0440203004402000ED00E0000040006D
:10024000C102400059024000014A024B1A60704747
:10025000001BB7000000402008B5144A536843F45F
:1002600000435360124B9847124B4FF400525A60B0
:100270001A6F42F400521A675A6F22F400525A67FA
:100280000D4A012313644FF48073136002F540623A
:1002900013601361194618461063084B013BFDD1EA
:1002A0005163064B013BF7D0FCE700BF50180E40EE
:1002B0004902400000100E4000060E40FFFF0F00F4
:1002C00070B50F4E0F4D761BB61018BF002405D029
:1002D000013455F8043B9847A642F9D10A4E0B4D1C
:1002E000761B00F093F8B61018BF002406D0013436
:1002F00055F8043B9847A642F9D170BD70BD00BFC8
:100300001804400018044000200440001804400075
:10031000024B13B1024800F005B87047000000001E
:1003200031034000002301461A46184600F01AB86F
:1003300038B50A4C0A4D641BA4100AD004F180435E
:10034000013B05EB8305013C55F804399847002C27
:10035000F9D1BDE8384000F063B800BF3004400078
:100360002C0440002DE9F047254C2568D5F848417C
:100370000646884692469946C4B360681F2817DC33
:10038000431C76B104EB80050122C5F888A0D4F89F
:10039000881182401143022EC4F88811C5F80891D3
:1003A0001ED00230636044F820800020BDE8F08752
:1003B000144B03B34FF4C870AFF300800446D0B1C0
:1003C000D5F84831002780E88800C5F8484138460C
:1003D0000123C4F88871C4F88C71002EE1D0D1E7F4
:1003E000D4F88C110A43C4F88C21DAE705F5A67419
:1003F000C5F84841C1E74FF0FF30BDE8F08700BFC6
:10040000080440000000000008004020F8B500BFCC
:10041000F8BC08BC9E4670471103400079014000BB
:10042000F8B500BFF8BC08BC9E46704755014000B7
:10043000001BB7000000000000000000F402402094
:100440005C034020C40340200000000000000000C6
:10045000000000000000000000000000000000009C
:10046000000000000000000000000000000000008C
:10047000000000000000000000000000000000007C
:10048000000000000000000000000000000000006C
:10049000000000000000000000000000000000005C
:1004A000000000000000000000000000000000004C
:1004B000000000000000000000000000000000003C
:1004C000000000000000000000000000000000002C
:1004D000000000000000000000000000000000001C
:1004E00001000000000000000E33CDAB34126DE6B9
:1004F000ECDE05000B000000000000000000000022
:1005000000000000000000000000000000000000EB
:1005100000000000000000000000000000000000DB
:1005200000000000000000000000000000000000CB
:1005300000000000000000000000000000000000BB
:0400000500400000B7
:00000001FF
