:020000040040BA
:10000000780A4020C5014000C1014000C101400004
:10001000C1014000C1014000C101400000000000DA
:10002000000000000000000000000000C1014000CE
:10003000C101400000000000C1014000C1014000BA
:10004000C1014000C1014000C1014000C1014000A8
:10005000C1014000C1014000C1014000C101400098
:10006000C101400000000000C1014000C10140008A
:10007000C1014000C1014000C1014000C101400078
:10008000C1014000C1014000C1014000C101400068
:10009000C1014000C1014000C1014000C101400058
:1000A000C1014000C1014000C1014000C101400048
:1000B000C1014000C1014000C1014000C101400038
:1000C000C1014000C1014000C1014000C101400028
:1000D000C1014000C1014000C1014000C101400018
:1000E000C1014000C1014000C1014000C101400008
:1000F000C1014000C1014000C1014000C1014000F8
:10010000C1014000C1014000C1014000C1014000E7
:10011000C1014000000000000000000000000000DD
:10012000C1014000C1014000C1014000C1014000C7
:10013000C1014000C1014000C1014000C1014000B7
:10014000C1014000C1014000C1014000C1014000A7
:10015000C101400010B5054C237833B9044B13B1ED
:100160000448AFF300800123237010BD3404402005
:1001700000000000500440000C4B43B10C480D49F6
:1001800010B5AFF300800C48036823B910BD0A48CE
:10019000036833B97047094B002BF7D0BDE8104016
:1001A0001847064B002BF5D0184700BF0000000091
:1001B000500440003804402050044000000000007B
:1001C000FEE7000008B5174B174A9A4210D0174BAC
:1001D000144A9A420CD2013B9B1A23F003030433C6
:1001E0001344114951F8040B42F8040B9A42F9D117
:1001F0000F4B104A9A420AD2013B9B1A23F0030389
:1002000004331344002142F8041B9342FBD10A4AF1
:100210000A4B23F07F039360094B9847094B98479B
:10022000FEE700BF0000402050044000340440209E
:10023000740440203404402000ED00E00000400041
:10024000B902400059024000014A024B1A6070474F
:10025000001BB7000000402008B5134A536843F460
:1002600000435360114B9847114B4FF000725A6096
:100270001A6F42F000721A675A6F42F000725A67A2
:1002800003F580634FF480721A601A611A464FF4C6
:10029000807108461063074B013BFDD15163054B4C
:1002A000013BF7D0FCE700BF50180E404902400068
:1002B000000E0E40FFFF0F0070B50F4E0F4D761B66
:1002C000B61018BF002405D0013455F8043B9847F8
:1002D000A642F9D10A4E0B4D761B00F0A7F8B610D6
:1002E00018BF002406D0013455F8043B9847A642B5
:1002F000F9D170BD70BD00BF380440003804400023
:100300004004400038044000024B13B1024800F0A2
:1003100005B8704700000000290340000023014693
:100320001A46184600F01EB838B50A4C0A4D641B30
:10033000A4100AD004F18043013B05EB8305013C86
:1003400055F804399847002CF9D1BDE8384000F041
:1003500077B800BF500440004C044000704700BF15
:10036000704700BF2DE9F8432C4D06462868984693
:100370000F469146FFF7F2FF294B1C68D4F848312D
:10038000002B3ED05A681F2A1CDC02F1010E76B108
:1003900003EB82010124C1F88890D3F888019440CE
:1003A0002043022EC3F88801C1F8088123D002320D
:1003B000C3F804E0286843F82270FFF7D1FF00205B
:1003C000BDE8F883174B0BB34FF4C870AFF3008050
:1003D0000346D8B1D4F848210260002141600A46A2
:1003E000C4F848014FF0010EC0F88811C0F88C1114
:1003F000002EDCD0CCE7D3F88C110C43C3F88C4131
:10040000D5E704F5A673C4F84831BBE72868FFF7C1
:10041000A7FF4FF0FF30BDE8F88300BF3004402055
:10042000280440000000000008004020F8B500BF8C
:10043000F8BC08BC9E4670470903400079014000A3
:10044000F8B500BFF8BC08BC9E4670475501400097
:10045000001BB7000000000000000000F402402074
:100460005C034020C40340200000000000000000A6
:10047000000000000000000000000000000000007C
:10048000000000000000000000000000000000006C
:10049000000000000000000000000000000000005C
:1004A000000000000000000000000000000000004C
:1004B000000000000000000000000000000000003C
:1004C000000000000000000000000000000000002C
:1004D000000000000000000000000000000000001C
:1004E000000000000000000000000000000000000C
:1004F00000000000000000000000000000000000FC
:1005000001000000000000000E33CDAB34126DE698
:10051000ECDE05000B000000000000000000000001
:1005200000000000000000000000000000000000CB
:1005300000000000000000000000000000000000BB
:1005400000000000000000000000000000000000AB
:10055000000000000000000000000000000000009B
:0408800050044020C0
:0400000500400000B7
:00000001FF
