:020000040040BA
:10000000780A4020C5014000C1014000C101400004
:10001000C1014000C1014000C101400000000000DA
:10002000000000000000000000000000C1014000CE
:10003000C101400000000000C1014000C1014000BA
:10004000C1014000C1014000C1014000C1014000A8
:10005000C1014000C1014000C1014000C101400098
:10006000C101400000000000C1014000C10140008A
:10007000C1014000C1014000C1014000C101400078
:10008000C1014000C1014000C1014000C101400068
:10009000C101400059024000C1014000C1014000BF
:1000A000C1014000C1014000C1014000C101400048
:1000B000C1014000C1014000C1014000C101400038
:1000C000C1014000C1014000C1014000C101400028
:1000D000C1014000C1014000C1014000C101400018
:1000E000C1014000C1014000C1014000C101400008
:1000F000C1014000C1014000C1014000C1014000F8
:10010000C1014000C1014000C1014000C1014000E7
:10011000C1014000000000000000000000000000DD
:10012000C1014000C1014000C1014000C1014000C7
:10013000C1014000C1014000C1014000C1014000B7
:10014000C1014000C1014000C1014000C1014000A7
:10015000C101400010B5054C237833B9044B13B1ED
:100160000448AFF300800123237010BD3404402005
:1001700000000000080540000C4B43B10C480D493D
:1001800010B5AFF300800C48036823B910BD0A48CE
:10019000036833B97047094B002BF7D0BDE8104016
:1001A0001847064B002BF5D0184700BF0000000091
:1001B0000805400038044020080540000000000009
:1001C000FEE7000008B5174B174A9A4210D0174BAC
:1001D000144A9A420CD2013B9B1A23F003030433C6
:1001E0001344114951F8040B42F8040B9A42F9D117
:1001F0000F4B104A9A420AD2013B9B1A23F0030389
:1002000004331344002142F8041B9342FBD10A4AF1
:100210000A4B23F07F039360094B9847094B98479B
:10022000FEE700BF000040200805400034044020E5
:10023000740440203404402000ED00E00000400041
:1002400071034000F9024000014A024B1A607047F6
:10025000001BB70000004020014A024BDA607047E3
:10026000AA000100008000404FF400101D4B1861EF
:100270001D4A01231360032353601C4B196F41F087
:1002800000711967596F21F000715967196F41F4B6
:1002900080111967596F21F480115967196F014353
:1002A0001967596F21F400115967196F41F48001E2
:1002B0001967596F21F4800159674FF01C7159601B
:1002C0004FF4F0431363136B5363136B9363136B1C
:1002D000D363022353610649086062B60549D160C1
:1002E0005361704700060E400080004000140E402D
:1002F00000E100E0AA00010008B5164A536843F483
:1003000000435360144B9847144B1A6F42F4005249
:100310001A675A6F22F400525A674FF400525A601B
:100320000F4A042313644FF48073136002F5406294
:10033000136013610B4B98470B4A4FF480710846CA
:1003400010630A4B013BFDD15163084B013BF7D0D1
:10035000FCE700BF50180E404902400000100E405C
:1003600000060E406902400000120E40FFFF0F0021
:1003700070B50F4E0F4D761BB61018BF002405D078
:10038000013455F8043B9847A642F9D10A4E0B4D6B
:10039000761B00F0A7F8B61018BF002406D0013471
:1003A00055F8043B9847A642F9D170BD70BD00BF17
:1003B000F0044000F0044000F8044000F004400065
:1003C000024B13B1024800F005B87047000000006E
:1003D000E1034000002301461A46184600F01EB80B
:1003E00038B50A4C0A4D641BA4100AD004F18043AE
:1003F000013B05EB8305013C55F804399847002C77
:10040000F9D1BDE8384000F077B800BF08054000DA
:1004100004054000704700BF704700BF2DE9F84356
:100420002C4D0646286898460F469146FFF7F2FF86
:10043000294B1C68D4F84831002B3ED05A681F2A3B
:100440001CDC02F1010E76B103EB82010124C1F83C
:100450008890D3F8880194402043022EC3F8880185
:10046000C1F8088123D00232C3F804E0286843F8B9
:100470002270FFF7D1FF0020BDE8F883174B0BB3C4
:100480004FF4C870AFF300800346D8B1D4F84821C8
:100490000260002141600A46C4F848014FF0010E95
:1004A000C0F88811C0F88C11002EDCD0CCE7D3F84E
:1004B0008C110C43C3F88C41D5E704F5A673C4F83E
:1004C0004831BBE72868FFF7A7FF4FF0FF30BDE8D2
:1004D000F88300BF30044020E0044000000000002A
:1004E00008004020F8B500BFF8BC08BC9E46704725
:1004F000C103400079014000F8B500BFF8BC08BC5A
:080500009E46704755014000C2
:10050800001BB7000000000000000000F4024020BB
:100518005C034020C40340200000000000000000ED
:1005280000000000000000000000000000000000C3
:1005380000000000000000000000000000000000B3
:1005480000000000000000000000000000000000A3
:100558000000000000000000000000000000000093
:100568000000000000000000000000000000000083
:100578000000000000000000000000000000000073
:100588000000000000000000000000000000000063
:100598000000000000000000000000000000000053
:1005A8000000000000000000000000000000000043
:1005B80001000000000000000E33CDAB34126DE6E0
:1005C800ECDE05000B000000000000000000000049
:1005D8000000000000000000000000000000000013
:1005E8000000000000000000000000000000000003
:1005F80000000000000000000000000000000000F3
:1006080000000000000000000000000000000000E2
:040938005004402007
:0400000500400000B7
:00000001FF
